:020000040800F2
:100000006004002045010008F50800087108000898
:10001000F3080008B5070008610D000800000000A3
:10002000000000000000000000000000990B000824
:10003000B707000800000000F7080008450C00089A
:100040005F0100085F0100085F0100085F01000810
:100050005F0100085F0100085F0100085F01000800
:100060005F0100085F0100085F0100085F010008F0
:100070005F0100085F0100085F0100085F010008E0
:100080005F0100085F0100085F0100085F010008D0
:100090005F0100085F0100085F0100085F010008C0
:1000A0005F0100085F0100085F0100085F010008B0
:1000B0005F0100085F0100085F0100085F010008A0
:1000C0005F0100085F0100085F0100085F01000890
:1000D0005F0100085F0100085F0100085F01000880
:1000E0005F0100085F0100085F0100085F01000870
:1000F0005F0100085F0100085F0100085F01000860
:100100005F0100085F0100085F0100085F0100084F
:100110005F0100085F0100085F0100085F0100083F
:100120005F0100085F0100085F0100085F0100082F
:10013000DFF80CD000F086FA004800477D16000872
:10014000600400200648804706480047FEE7FEE7B7
:10015000FEE7FEE7FEE7FEE7FEE7FEE7FEE7FEE777
:10016000490C0008310100082DE9FE4F81EA030423
:1001700004F0004421F0004100944FF0000B23F004
:10018000004350EA01045ED052EA03045BD0C3F39B
:100190000A54C1F30A552C44A4F2F3340194A0FB91
:1001A0000254C1F3130141F48011C3F3130343F468
:1001B000801301FB024400FB034E840A970A44EAC1
:1001C000815447EA8357A4FB076802958D0A05FB13
:1001D00007854FEA932C04FB0C542705029D4FEA38
:1001E000065847EA1637B5EB08056EEB070C870E85
:1001F000920E47EA811742EA8312A7FB0201B6EB8F
:100200000B0164EB00042B0D43EA0C335E1844EB46
:100210001C50DA465146E7FB0201C5F313044FEACE
:100220000B3343EA14534FEA0432019C43EA0603BA
:10023000A4F10C040294009CCDE900B400F086F80F
:1002400003B0BDE8F08F00200146F9E70EB5C10FFD
:1002500080EAE0700844CA07002140F233438DE889
:100260000E000A460B4600F071F803B000BD000016
:1002700030B5041E71F1000404DB4FF0004440422D
:1002800064EB0101141E73F1000405DB1C464FF002
:100290000043524263EB0403994208BF904230BDD1
:1002A00030B50B46014600202022012409E021FA46
:1002B00002F59D4205D303FA02F5491B04FA02F543
:1002C0002844151EA2F10102F1DC30BD2DE9F05FDA
:1002D0000546002092469B468846064681464024B5
:1002E0001BE0284641464746224600F0CCF95346DB
:1002F0005A46C01A914110D311461846224600F0C2
:10030000B3F92D1A67EB01084F4622460120002160
:1003100000F0AAF917EB00094E41201EA4F10104D8
:10032000DFDC484631462A464346BDE8F09F10B51B
:10033000141E73F1000408DA401C41F10001921808
:100340005B411A4301D120F0010010BD2DE9F04DB1
:1003500092469B4611B1B1FA81F202E0B0FA80F206
:100360002032904600F080F904460F4640EA0A0029
:1003700041EA0B0153465A46084313D0114653EA4B
:10038000010019D0C8F14002504600F07CF9054642
:100390000E4650465946424600F066F9084305D0DD
:1003A000012004E020463946BDE8F08D00200543D9
:1003B00046EAE0762C4337430A986305E40AA0EB4B
:1003C00008000022FD0A44EA47540A3002D5002002
:1003D0000146E9E7010510196941DDE90845001901
:1003E0006941BDE8F04DA2E72DE9FE4F804681EA64
:1003F0000300C00F0C46009021F0004123F000459F
:10040000B8EB0200A94105D24046214690461C4661
:100410000B46024623F00040104347D0270DC7F398
:100420000A00C3F30A510290401A019040286BDA87
:10043000C3F3130040F4801B0098924620B10023C0
:10044000D2EB030A63EB0B0B01985946C0F1400253
:10045000504600F009F906460D4650465946019AA5
:1004600000F021F910EB08006141002487EA1152E5
:1004700084EAE7731A4340D0009A62B3019A012AD2
:100480004FEA075215DC001B61EB02014FF00042FE
:1004900002EA0752CDE90042001C41F580113246C4
:1004A0002B46FFF753FF03B0BDE8F08F40462146CF
:1004B000F9E7001B61EB0201001C41F580130018F5
:1004C0005B412018A2F5001747EB030140EAD57005
:1004D000B6196D4111E06D084FEA360645EAC07560
:1004E0004FEA0752001B61EB0201001C41F580112D
:1004F00049084FEA30000019514132462B4603B0FB
:10050000BDE8F04FFFF713BF009801224000002321
:10051000D0EB020263EBE073009821464FEAE074EF
:10052000B8EB000061EB0401E9E783F000435BE70F
:1005300081F0004158E72DE9F04D81EA030404F011
:10054000004B21F0004514464FF0000A23F0004113
:1005500050EA050220D054EA01021DD0C5F30A5723
:100560000246C5F31303C1F31300C1F30A5640F466
:10057000801543F48013A7EB0608101BD64608F23B
:10058000FD3873EB050002D308F1010801E0921871
:100590005B41B8F1000F03DA00200146BDE8F08DA1
:1005A00000204FF48011064684460EE0171B73EBC3
:1005B000050705D3121B63EB050306434CEA010C48
:1005C00049084FEA300092185B4150EA0107EDD12B
:1005D00052EA030012D082EA040083EA05010843CC
:1005E00005D0101BAB4106D20122002306E00022F9
:1005F0004FF0004302E06FF0010253101AEB0600C7
:100600004CEB085110EB0A0041EB0B01BDE8F04D3B
:10061000FFF78DBEC1F30A52C1F3130140F2FF335D
:1006200041F480119A4202DA00200146704740F2FC
:1006300033439A42A2F2334202DC524200F023B822
:1006400000F012B8064C074D06E0E06840F00103E8
:1006500094E8070098471034AC42F6D3FFF76CFDDE
:1006600094170008B4170008202A04DB203A00FA87
:1006700002F1002070479140C2F1200320FA03F3F9
:10068000194390407047202A04DB203A21FA02F0F7
:100690000021704721FA02F3D040C2F120029140BC
:1006A000084319467047202A06DBCB17203A41FA47
:1006B00002F043EAE07306E041FA02F3D040C2F1EF
:1006C0002002914008431946704700002DE9F0418F
:1006D000164D4FF4805600243146284600F0C4F8E9
:1006E0002F153946284600F0B8F80028F9D1FC202B
:1006F00000F0E6F9002000F0E3F9012000F0E0F955
:10070000FF2000F0DDF944EA0044FF2000F0D8F9B2
:1007100044EA0024FF2000F0D3F904433146284680
:1007200000F0A4F82046BDE8F0810000000C014074
:100730002DE9F041104D884604464FF4805631466D
:10074000284600F091F82F153946284600F085F824
:100750000028F9D104F00F0040F0500000F0B0F98B
:10076000002000F0ADF9404600F0AAF931462846D5
:10077000BDE8F04100F07AB8000C014010B5062148
:100780000020FFF7D5FF00210220FFF7D1FF8221D3
:100790000320FFF7CDFF0021BDE810400420FFF744
:1007A000C7BF10B501460120FFF7C2FFBDE81040EA
:1007B000FFF78CBFFEE77047F0B5CA78002502F05E
:1007C0000F03D20601D58A7813430A784FF00F0E33
:1007D00012F0FF0F4FF001021CD004680F8802FADC
:1007E00005F63740B74211D14FEA850C0EFA0CF7E7
:1007F00024EA070703FA0CF43C43CF78282F02D0F1
:10080000482F02D002E0466100E006616D1C082D11
:10081000E4D304600C88FF2C1ED944685FF0000606
:1008200006F1080702FA07F50F882F40AF420FD1F3
:100830004FEA860C0EFA0CF7BC4303FA0CF73C4364
:10084000CF78282F00D14561CF78482F00D105619E
:10085000761C082EE4D34460F0BD02460020926866
:100860000A4200D001207047416170470161704722
:10087000FEE70000F8B50121082000F049F84FF428
:100880000064ADF8004010208DF803000D4E0325E4
:100890008DF8025069463046FFF78EFF21463046FC
:1008A000FFF7E2FF6010ADF8000048208DF803006C
:1008B0008DF8025069463046FFF77EFF00F07CF865
:1008C000F8BD0000000C01401FB54FF41650009019
:1008D0000020ADF80400ADF80600ADF80800ADF852
:1008E0000C000C20ADF80A006946002000F002F967
:1008F0001FBDFEE770477047044A0029D16901D047
:10090000014300E08143D1617047000000100240C4
:10091000044A0029916901D0014300E081439161BB
:10092000704700000010024030B51F494A6812F0BD
:100930000C031E4A03D0042B01D0082B21D00260E7
:100940004A680F231A4C03EA1212A35C0268DA40C9
:1009500042604B68072505EA1323E35C22FA03F3A0
:1009600083604B6805EAD323E35CDA40C2604968E0
:10097000032303EA9131231F595CB2FBF1F10161BA
:1009800030BD4A684B6802F470124FF0020413F451
:10099000803F04EB924202D04B689B0301D5054B8C
:1009A00000E0024B5A43CAE70010024000127A00EE
:1009B0000400002000093D0070B586B00121082028
:1009C000FFF7A6FF01218803FFF796FF4FF4604071
:1009D000ADF8140003248DF8164018201D4E8DF834
:1009E000170005A93046FFF7E7FEB514ADF814501F
:1009F0008DF8164010208DF8170005A93046FFF736
:100A0000DBFE29463046FFF731FF0020ADF800003D
:100A10004FF48271ADF802100121ADF808104902BF
:100A2000ADF80A103821ADF80C10ADF80400ADF89F
:100A30000600ADF80E000720074CADF8100069461F
:100A4000204600F020F80121204600F007F806B00B
:100A500070BD0000000C01400038004000290188F2
:100A600002D041F0400101E021F0400101807047D7
:100A70000246002012890A4200D001207047808976
:100A800070478181704730B502884C8802F4415329
:100A90000A88CD8822438C882C4322430C89224328
:100AA0004C8922438C892243CC8922431A430280F9
:100AB000828B22F400628283098A018230BD0000A9
:100AC00070B50B4C054602212046FFF7D1FF0028E8
:100AD000F9D029462046FFF7D4FF01212046FFF731
:100AE000C7FF0028F9D02046FFF7C9FFC0B270BD8C
:100AF00000380040F8B50E46044625492448083120
:100B000050F8240051F82410084340F0010001215E
:100B1000FFF7FEFE1E4808389CB350F82400012160
:100B2000FFF7EAFE18208DF80300194869461838C7
:100B300030F81400ADF8000003208DF802001548CD
:100B400050F82400FFF738FE04208DF80300104809
:100B50006946143830F81400ADF800000D4808302C
:100B600050F82400FFF728FE0A4D3146083D55F89D
:100B7000240000F09BF855F82400012100F084F8CF
:100B8000F8BDFFE700680121FFF7C2FECAE70000D9
:100B9000041700081C000020704700000CB500215D
:100BA000264801910091026842F4803202604FF4BD
:100BB000A063026802F400320092019A521C019272
:100BC000009A12B9019A9A42F3D10268920333D57E
:100BD000012100911A490A6842F010020A600A686D
:100BE00022F003020A600A6842F002020A604168C9
:100BF000416041684160416841F480614160416801
:100C000021F47C114160416841F4E81141600168C0
:100C100041F08071016001688901FCD5416821F0D3
:100C200003014160416841F0020141604168C1F344
:100C300081010229FAD10CBD00910CBD00100240C7
:100C400000200240704700000C48016841F001019B
:100C5000016041680A4A114041600168094A114037
:100C60000160016821F480210160416821F4FE01E6
:100C700041604FF41F018160FFF790BF00100240F8
:100C80000000FFF8FFFFF6FE0029818902D041F441
:100C9000005101E021F4005181817047024600209B
:100CA00012880A4200D001207047000030B5044687
:100CB000008A85B00D464CF6FF710840E988014373
:100CC0002182A1894EF6F3100140A8882A89104399
:100CD0006A890A431043A081A08A4FF6FF41084069
:100CE000A9890143A1826846FFF71EFE1948844284
:100CF00001D1039800E00298A189090400EBC0012A
:100D000001EB0010296801D5490000E08900B0FB23
:100D1000F1F06422B0FBF2F109010B096FF0180544
:100D20006B4300EB8300A3891D044FF0320306D50B
:100D300003EBC000B0FBF2F000F0070005E003EBAE
:100D40000010B0FBF2F000F00F000843208105B066
:100D500030BD000000380140C1F3080181807047B8
:100D6000FEE700000FB4054B10B503A9044A029832
:100D700000F0DAF810BC5DF814FB0000591600080A
:100D80005C00002002E008C8121F08C1002AFAD146
:100D900070477047002001E001C1121F002AFBD1FB
:100DA000704700002DE9FF5F82B00021DDE90430CB
:100DB000020DDDF840B0034318D044F61050A2F203
:100DC000FF3242431514119801281FD0A5EB0B00E8
:100DD000401C5FEA000A4FF000064E4FDFF83891E2
:100DE000B046504615D5CAF1000413E0119801240D
:100DF0004AA3012801D16FEA0B010298119AC0E9B8
:100E00000031C0E9024206B0BDE8F09FCBF100001E
:100E1000DFE704460021404A491842EB0450CDE97F
:100E2000001012E0E00707D032463B4640464946F4
:100E3000FFF79AF98046894632463B4610461946E6
:100E4000FFF792F906460F466410002CEAD1DDE95F
:100E50000401DDE90023BAF1000F06DAFFF784F997
:100E600042464B46FFF780F905E0FFF764FB424638
:100E70004B46FFF760FB04460E460022284BFFF767
:100E8000F7F903D84FF0FF30014607E00022254B69
:100E900020463146FFF7A8FAFFF7BCFB102409E013
:100EA000002C0ADB0A220023FFF710FA039B3032E2
:100EB0001A55641E50EA0102F2D1641C039AC4F16F
:100EC00011031444119A012A03D0012208430DD1C1
:100ED0000AE0084304D000204FF0110B119072E794
:100EE000A3EB0B056D1E0DE05B4504DD4FF000022A
:100EF00005F1010504E003DA4FF00002A5F1010558
:100F0000002AECD002981199C0E90231C0E90045ED
:100F100079E70000000014400000F03F30000000BE
:100F20000000F0430000E03F2DE9FF4F95B09B46E5
:100F30008946064600250FE2252877D1002427465A
:100F4000F84A0121059400E0044316F8013F203BD4
:100F500001FA03F01042F7D130782A2811D06FF04F
:100F60002F033078A0F13002092A16D8059A44F0F0
:100F7000020402EB820203EB42021044761C05904D
:100F8000EFE759F8042B0592002A03DA504244F4A3
:100F90000054059044F00204761C30782E2816D1B7
:100FA00016F8010F44F004042A280DD06FF02F0228
:100FB0003078A0F13003092B09D807EB870302EB47
:100FC0004303C718761CF3E759F8047B761C307886
:100FD0006C280FD006DC4C2817D068280DD06A2862
:100FE00014D104E0742810D07A280FD10DE044F415
:100FF00000140AE044F4801401E044F440147278D0
:10100000824202D104F58014761C761C3078662862
:101010000BD013DC582877D009DC002875D0452880
:10102000F6D04628F4D047281AD19DE118E063286D
:1010300035D0642879D0652812D195E1702873D015
:1010400008DC6728F1D069286FD06E280DD06F2892
:1010500006D1B5E073282CD0752875D0782874D0C7
:101060005A46179990476D1C75E1C4F30250022847
:1010700009D003280DD0D9F8001004280DD00D6038
:1010800009F1040967E1D9F80010EA17C1E9005233
:10109000F6E7D9F800100D80F2E70D70F0E719F8C7
:1010A000041B8DF8001000208DF80100EA46012095
:1010B00003E059F804AB4FF0FF3061074FF0000137
:1010C00002D40DE008F101018846B9420FDA8045EB
:1010D000F8DB1AF808100029F4D108E008F1010142
:1010E00088468142FADB1AF808100029F6D10598E3
:1010F0005B46A0EB080721463846179A00F094FAA1
:10110000284400EB080507E04DE029E10DE01AF85E
:10111000010B5A4617999047B8F10108F7D25B4680
:1011200021463846179A13E142E00A220092C4F39E
:1011300002524FF0000A022A08D059F804CB032AC1
:101140004FEAEC710AD00DE029E02AE009F107012D
:1011500021F00702F2E802C1914609E00FFA8CFC87
:101160004FEAEC71042A03D14FFA8CFC4FEAEC7180
:10117000002907DA0A460021DCF1000C61EB0201CC
:101180002D2202E0220504D52B228DF80420012215
:1011900003E0E20701D02022F7E7904659E00A2158
:1011A00002E010220DE010214FF0000A00910BE048
:1011B00010224FF0000A44F004040827009203E0D4
:1011C00008224FF0000A0092C4F30252022A05D00E
:1011D00059F804CB0021032A08D009E009F10701DE
:1011E00021F00702F2E802C1914605E01FFA8CFCEB
:1011F000042A01D10CF0FF0C4FF00008220728D57B
:10120000702806D0009B83F0100353EA0A0305D030
:101210000EE040228DF80420012208E05CEA010281
:1012200006D030228DF804208DF805000222904669
:10123000009B83F0080353EA0A030AD15CEA010227
:1012400001D1620705D530228DF804204FF0010846
:101250007F1E582804D034A003900EA802900DE001
:1012600036A0F9E753466046009AFFF72FF8844608
:101270000398825C0298401E029002705CEA0100B2
:10128000F0D1029806A9081A00F1200A600702D5D9
:1012900024F4803400E00127574502DDA7EB0A0063
:1012A00000E0002000EB0A01009005984144401A3C
:1012B0000590E00306D45B462146179A059800F096
:1012C000B3F90544002706E001A85A46C05D179906
:1012D00090476D1C7F1C4745F6DBE0030CD55B4651
:1012E0002146179A059800F09FF9054404E0302044
:1012F0005A46179990476D1C0099481E0090002986
:10130000F5DC08E0029802995A460078491C0291DF
:10131000179990476D1CBAF10001AAF1010AF1DC9E
:1013200065E10000092801003031323334353637A9
:101330003839616263646566000000003031323321
:1013400034353637383941424344454600000000C1
:1013500000F058F90544761C307800287FF4ECAD95
:1013600019B02846BDE8F08F620700D4062709F1BE
:10137000070222F0070CFCE80223E14603F00048D4
:101380005FEA080C02D00FF2702C0DE05FEA045CFB
:1013900002D50FF2682C07E05FEAC47C02D00FF29E
:1013A000602C01E0AFF2700C4FF0FF3823F00043E7
:1013B000CDF850C065280CD006DC452809D0462859
:1013C0001DD047283DD13DE0662818D067287ED142
:1013D00038E00021112F01DB112000E0781CCDE95D
:1013E000000106A90EA8FFF7DDFCDDE90F010E9A4A
:1013F00003910021009207F1010A04914DE04FF0A2
:1014000000400097CDE9011006A90EA8FFF7CAFC1D
:10141000DDE90F0203920E9B11990022DDF80CA06A
:101420000093049211B9791C00EB010AB7EB0A0092
:1014300004D4C0F1FF3007F1010A0490AAEB0700C1
:10144000019044E0012F00DA01270021112F01DD76
:10145000112000E03846CDE9000106A90EA8FFF7EB
:10146000A1FCDDE90F010E9A039100210491009285
:10147000BA4621070CD40399514500DA8A46BAF1DD
:10148000010F05DD009AAAF10101515C302908D055
:10149000B84202DA10F1040F06DA0121CDE9011099
:1014A00015E0AAF10101E9E7002805DC04990144EF
:1014B0000491AAEB000102E0411C514500DD8A467F
:1014C0000499401A401C01904FF000400290200700
:1014D00004D40198504501DBCDF8048000208DF83C
:1014E0004F0002980DF14F07B0F1004F25D02B208F
:1014F0000E9002984FF0020800280CDA4042029049
:101500002D200E9007E00A210298FEF7C9FE303127
:10151000029007F8011DB8F10001A8F10108F2DC02
:1015200002980028EFD1791E0E980870307800F0EC
:10153000200040F0450007F8020D12A8C01B00F182
:1015400007081498007800B1012000EB0A01019807
:1015500001EBE07105984144401A401E0590E003FC
:1015600006D45B462146179A059800F05DF80544BD
:101570001498007818B15A46179990476D1CE003EB
:1015800024D55B462146179A059800F04DF805448E
:101590001CE00498002807DBDDE90301884203DD35
:1015A0000098405C179901E0179930205A469047FF
:1015B000049805F10105401C04900198401E01901B
:1015C00004D12E205A46179990476D1CBAF100019C
:1015D000AAF1010ADDDC05E017F8010B5A4617995C
:1015E00090476D1CB8F10001A8F10108F4DC5B46DE
:1015F0002146179A0598ABE62D0000002B0000004D
:10160000200000002DE9F041044600251E46174643
:10161000880404D405E039462020B0476D1C641EC0
:10162000F9D52846BDE8F0812DE9F04104460025B2
:101630001E469046C80301D5302700E020278804C5
:1016400004D505E041463846B0476D1C641EF9D507
:101650002846BDE8F081000070B5074D0446C1B2D0
:101660002846FFF779FB40212846FFF717FB0028A3
:10167000F9D0204670BD000000380140FFF724F982
:10168000FFF7F8F84FF400611348FFF7EFF8FFF7A2
:1016900075F8124D0826002446EA0410C0B2FFF780
:1016A00080F8010204D5C043C0F31600401C40423C
:1016B000FEF7CCFD00222B46FEF756FD02460B46F8
:1016C00007A0FFF74FFB641CE4B2082CE4D306A08C
:1016D000FFF748FBDFE70000000C0140D012E33FBA
:1016E000256C662C200000000A00000000020400A7
:1016F00000040800400080000001000200400000DB
:1017000000000200040000000400000004000000CB
:101710000400000080000000800000008000000045
:101720008000000001000020000100200040008037
:10173000080080000400000010000000000100000C
:101740000001000000010000000100002000000076
:101750000001000001000020000100200040008086
:1017600008008000000002000600060006000600D7
:101770000300060000000D0008000D000E000F0021
:101780000300070006002800170028002800280092
:1017900009001700B41700080000002060000000D6
:1017A000840D0008141800086000002000040000E8
:1017B000940D000802040608000000000102030462
:1017C00001020304060708090038014000440040F4
:1017D00000080140000801400008014000080140E5
:1017E000001C0140001C0140001C0140001C014085
:1017F000000801400010014000200140002001408D
:101800000020014000200140001401400020014060
:0418100000000000D4
:0400000508000131BD
:00000001FF
